S011000050726F6A65637420322E73726563EA
S11300000C9466000C9478000C9478000C9478009E
S11300100C9478000C9478000C9478000C9478007C
S11300200C9478000C9478000C9478000C9478006C
S11300300C9478000C9478000C9478000C9478005C
S11300400C9478000C9478000C9478000C9478004C
S11300500C9478000C9478000C9478000C9478003C
S11300600C9478000C9478000C9478000C9478002C
S11300700C9478000C9478000C9478000C9478001C
S11300800C9478000C9478000C9478000C9478000C
S11300900C9478000C9478000C9478000C947800FC
S11300A00C9478000C9478000C9478000C947800EC
S11300B00C9478000C9478000C9478000C947800DC
S11300C00C9478000C9478000C94780011241FBED2
S11300D0CFEFD8E0DEBFCDBF21E0A0E0B1E001C0AA
S11300E01D92A230B207E1F70E94D4000C941401CF
S11300F00C94000082E886BD83E085BD85B3882327
S1130100E9F315BC81E085BB0895CF93DF93C0E08C
S1130110D0E007C09EB180E189278EB90E947A00A1
S11301202196C03283E0D807ACF3DF91CF910895D4
S113013020E030E00BC016BC85E085BD85B3882384
S1130140E9F315BC81E085BB2F5F3F4F2A303105B1
S113015094F3089580910001909101010196909388
S11301600101809300014F9734F010920101109225
S113017000010E9485000E9498000895809100016A
S113018090910101019790930101809300019923BB
S113019044F48EE190E090930101809300010E9469
S11301A085000E94980008951092010110920001A8
S11301B011B89FEF92B98DB180618DB98EB18F7EE8
S11301C08EB99AB9EE24EA94F12C00B110E0C0E0A3
S11301D0D0E021C0C8010C2E02C0959587950A94E1
S11301E0E2F79C0121703327C7010C2E02C09595BC
S11301F087950A94E2F780FD0DC0232B59F02097D0
S113020021F0C130D10521F005C00E94AA0002C02E
S11302100E94BE002196C830D105E4F2809100010D
S10F022080958BB97801D1CFF894FFCF02
S9030000FC
