S011000050726F6A65637420322E73726563EA
S11300000C9466000C9478000C9478000C9478009E
S11300100C9478000C9478000C9478000C9478007C
S11300200C9478000C9478000C9478000C9478006C
S11300300C9478000C9478000C9478000C9478005C
S11300400C9478000C9478000C9478000C9478004C
S11300500C9478000C9478000C9478000C9478003C
S11300600C9478000C9478000C9478000C9478002C
S11300700C9478000C9478000C9478000C9478001C
S11300800C9478000C9478000C9478000C9478000C
S11300900C9478000C9478000C9478000C947800FC
S11300A00C9478000C9478000C9478000C947800EC
S11300B00C9478000C9478000C9478000C947800DC
S11300C00C9478000C9478000C94780011241FBED2
S11300D0CFEFD8E0DEBFCDBF21E0A0E0B1E001C0AA
S11300E01D92A230B207E1F70E94B8000C94F80008
S11300F00C94000020E030E011C0803D47E09407FC
S113010021F45EB140E145274EB9019702C080E475
S11301109DE0181619068CF32F5F3F4F24363105E6
S1130120B4F3089580910001909101010196909398
S11301300101809300014F9734F010920101109255
S113014000010E947A0008958091000190910101BC
S113015001979093010180930001992344F48EE167
S113016090E090930101809300010E947A00089529
S1130170109201011092000111B89FEF92B98DB154
S113018080618DB98EB18F7E8EB99AB9EE24EA94CE
S1130190F12C00B110E0C0E0D0E021C0C8010C2E69
S11301A002C0959587950A94E2F79C012170332744
S11301B0C7010C2E02C0959587950A94E2F780FD3D
S11301C00DC0232B59F0209721F0C130D10521F027
S11301D005C00E94920002C00E94A4002196C8306B
S11301E0D105E4F28091000180958BB97801D1CFDB
S10701F0F894FFCFAD
S9030000FC
