:100000000C946E000C948B000C948B000C948B0061
:100010000C948B000C948B000C948B000C948B0034
:100020000C948B000C948B000C948B000C948B0024
:100030000C948B000C948D000C948B000C948B0012
:100040000C948B000C948B000C948B000C948B0004
:100050000C948B000C948B000C948B000C948B00F4
:100060000C948B000C948B000C948B000C948B00E4
:100070000C948B000C948B000C948B000C948B00D4
:100080000C948B000C948B000C948B000C948B00C4
:100090000C948B000C948B000C948B000C948B00B4
:1000A0000C948B000C948B000C948B000C948B00A4
:1000B0000C948B000C948B000C948B000C948B0094
:1000C0000C948B000C948B000C948B001401170182
:1000D0001A011D01200123012601290111241FBE3F
:1000E000CFEFD8E0DEBFCDBF11E0A0E0B1E0EEE39E
:1000F000F3E002C005900D92AC30B107D9F721E0D2
:10010000ACE0B1E001C01D92AD30B207E1F70E9452
:1001100080010C949D010C9400001F920F920FB669
:100120000F9211248F939F93109285001092840058
:100130008091090190910A01019790930A0180939F
:1001400009019F918F910F900FBE0F901F901895EE
:1001500010928000E1E8F0E0808188618083E4E82B
:10016000F0E08081918191838083EFE6F0E08081EF
:100170008260808384E294EF90938900809388006A
:100180000895E1E8F0E0808184608083089582E84A
:1001900086BD83E085BD85B38823E9F315BC81E086
:1001A00085BB0895CF93DF93C0E0D0E007C09EB138
:1001B00080E189278EB90E94C7002196C03981E06D
:1001C000D807ACF3DF91CF9108950F931F93CF938E
:1001D000DF9380B190E09093060180930501C0E029
:1001E000D0E03AC020910701309108010C2E02C0E6
:1001F000359527950A94E2F78091050190910601C3
:100200000C2E02C0959587950A94E2F78170992784
:1002100020FD21C0892BF9F0C830D105E0F4FE01A2
:10022000EA59FF4F0C9497010E94D20014C00E941B
:10023000D20011C00E94D2000EC00E94D2000BC09A
:100240000E94D20008C00E94D20005C00E94D200C5
:1002500002C00E94D2002196C830D1051CF28091C4
:1002600005019091060190930801809307018CB1DC
:1002700090E090930201809301019091030186FB2D
:10028000002700F910E096FD04C0012B11F00E9438
:10029000D20080910101909102019093040180931A
:1002A0000301DF91CF911F910F91089511C0009923
:1002B0000FC0009BFECF8EE190E090930A018093E7
:1002C00009018FEF8BB91092000181E080930C013E
:1002D000809100018111EBCF08950DC00E94E500CF
:1002E0008091090190910A01892B29F41BB80E9481
:1002F000D20010920C0180910C018111EFCF089572
:1003000011B89FEF92B98DB180618DB98EB18F7E9A
:100310008EB99AB91BB80E94A80078940E94C100B7
:100320000E9456010E946D0180E090E00895EE0F5A
:0E033000FF1F0590F491E02D0994F894FFCF83
:0C033E000101000100FF00FF00E70300C8
:00000001FF
