:100000000C9466000C947B000C947B000C947B0099
:100010000C947B000C947B000C947B000C947B0074
:100020000C947B000C947B000C947B000C947B0064
:100030000C947B000C947D000C947B000C947B0052
:100040000C947B000C947B000C947B000C947B0044
:100050000C947B000C947B000C947B000C947B0034
:100060000C947B000C947B000C947B000C947B0024
:100070000C947B000C947B000C947B000C947B0014
:100080000C947B000C947B000C947B000C947B0004
:100090000C947B000C947B000C947B000C947B00F4
:1000A0000C947B000C947B000C947B000C947B00E4
:1000B0000C947B000C947B000C947B000C947B00D4
:1000C0000C947B000C947B000C947B0011241FBECD
:1000D000CFEFD8E0DEBFCDBF11E0A0E0B1E0E6EAAF
:1000E000F1E002C005900D92A230B107D9F70E944D
:1000F000BD000C94D1000C9400001F920F920FB61B
:100100000F9211248F939F93109285001092840078
:1001100080910001909101010197909301018093DA
:1001200000019F918F910F900FBE0F901F90189517
:1001300010928000E1E8F0E0808188618083E4E84B
:10014000F0E08081918191838083EFE6F0E080810F
:100150008260808384E294EF90938900809388008A
:100160000895E1E8F0E08081846080830895E1E80B
:10017000F0E08081887F808308958FEF8AB91BB873
:100180000E94980078940E94B100809100019091A3
:10019000010118161906CCF30E94B7008FEF8BB936
:0601A000F4CFF894FFCF3C
:0201A600050052
:00000001FF
