S014000050726F6A6563743247616D652E737265638D
S11300000C9466000C947B000C947B000C947B0095
S11300100C947B000C947B000C947B000C947B0070
S11300200C947B000C947B000C947B000C947B0060
S11300300C947B000C947D000C947B000C947B004E
S11300400C947B000C947B000C947B000C947B0040
S11300500C947B000C947B000C947B000C947B0030
S11300600C947B000C947B000C947B000C947B0020
S11300700C947B000C947B000C947B000C947B0010
S11300800C947B000C947B000C947B000C947B0000
S11300900C947B000C947B000C947B000C947B00F0
S11300A00C947B000C947B000C947B000C947B00E0
S11300B00C947B000C947B000C947B000C947B00D0
S11300C00C947B000C947B000C947B0011241FBEC9
S11300D0CFEFD8E0DEBFCDBF11E0A0E0B1E0E6ECA9
S11300E0F2E002C005900D92AA30B107D9F70E9440
S11300F046010C9461010C9400001F920F920FB6FC
S11301000F9211248F939F93109285001092840074
S113011080910801909109010197909309018093BE
S113012008019F918F910F900FBE0F901F9018950B
S113013010928000E1E8F0E0808188618083E4E847
S1130140F0E08081918191838083EFE6F0E080810B
S11301508260808384E294EF909389008093880086
S11301600895E1E8F0E0808184608083089582E866
S113017086BD83E085BD85B38823E9F315BC81E0A2
S113018085BB0895CF93DF93C0E0D0E007C09EB154
S113019080E189278EB90E94B7002196C03981E099
S11301A0D807ACF3DF91CF9108950F931F93CF93AA
S11301B0DF9380B190E09093050180930401C0E047
S11301C0D0E03AC020910601309107010C2E02C004
S11301D0359527950A94E2F78091040190910501E1
S11301E00C2E02C0959587950A94E2F781709927A1
S11301F020FD21C0892BF9F0C230D105A1F034F4DF
S1130200209759F0C130D10559F015C0C330D1053C
S113021069F0C430D10569F00EC00E94C2000BC061
S11302200E94C20008C00E94C20005C00E94C20011
S113023002C00E94C2002196C830D1051CF28091F0
S113024004019091050190930701809306018CB1FC
S113025090E090930101809300019091020186FB4C
S1130260002700F910E096FD04C0012B11F00E9454
S1130270C200809100019091010190930301809349
S11302800201DF91CF911F910F91089511B89FEF53
S113029092B98DB180618DB98EB18F7E8EB99AB9C4
S11302A01BB80E94980078940E94B10080910801C4
S11302B090910901892B11F48FEF8BB90E94D5001D
S10902C0F5CFF894FFCF16
S10D02C601000100FF00FF00050025
S9030000FC
