S014000050726F6A6563743247616D652E737265638D
S11300000C9466000C9483000C9483000C9483007D
S11300100C9483000C9483000C9483000C94830050
S11300200C9483000C9483000C9483000C94830040
S11300300C9483000C94E1000C9483000C948300D2
S11300400C9483000C9483000C9483000C94830020
S11300500C9483000C9483000C9483000C94830010
S11300600C9483000C9483000C9483000C94830000
S11300700C9483000C9483000C9483000C948300F0
S11300800C9483000C9483000C9483000C948300E0
S11300900C9483000C9483000C9483000C948300D0
S11300A00C9483000C9483000C9483000C948300C0
S11300B00C9483000C9483000C9483000C948300B0
S11300C00C9483000C9483000C94830011241FBEB1
S11300D0CFEFD8E0DEBFCDBF11E0A0E0B1E0E8E5AE
S11300E0F5E002C005900D92A630B107D9F721E0E2
S11300F0A6E0B1E001C01D92AE30B207E1F70E9464
S1130100AF010C94AA020C94000010928000E1E864
S1130110F0E0808188618083E4E8F0E0808191816F
S113012091838083EFE6F0E080818260808384E2C3
S113013094EF90938900809388000895E1E8F0E0BB
S11301408081846080830895E1E8F0E08081887F85
S11301508083089582E886BD83E085BD85B38823C6
S1130160E9F315BC81E085BB0895CF93DF93C0E02C
S1130170D0E007C09EB180E189278EB90E94AA0011
S11301802196C03981E0D807ACF3DF91CF9108956F
S113019020910801309109010BC00E94780266E0A9
S11301A070E00E94C3019C01039714F02E5F3F4F3F
S11301B080910801909109012817390771F3C90149
S11301C008951F920F920FB60F9211242F933F930D
S11301D04F935F936F937F938F939F93AF93BF934B
S11301E0EF93FF9310928500109284008091070191
S11301F08823D1F00E94C8008093080190930901DC
S113020021E030E0A90102C0440F551F8A95E2F7AE
S1130210CA0180958BB980910C0190910D010197D1
S113022090930D0180930C01FF91EF91BF91AF91D9
S11302309F918F917F916F915F914F913F912F91FA
S11302400F900FBE0F901F901895CF93DF9381E00E
S113025080930401C0E0D0E025C0BE016F5F7F4FF2
S1130260072E000C880B990B20EA36E841E050E099
S11302700E94D701EB01009915C0009BFECFCB0172
S11302800E947D0278940E949E008EE190E09093FB
S11302900D0180930C018FEF8BB91092040181E062
S11302A080930701809104018111D7CFDF91CF9111
S11302B0089541C080B190E0809590952091080107
S11302C030910901022E02C0959587950A94E2F7B0
S11302D080FF22C02F3F8FEF3807F1F080B190E00C
S11302E080959095022E02C0959587950A94E2F721
S11302F080FDF4CF80910A0190910B0101969093B7
S11303000B0180930A018FEF9FEF90930901809373
S113031008018BB90E94B50080910C0190910D01E8
S11303201816190644F01BB80E94B5001092070174
S113033081E080930601809107018111BBCF08956C
S11303400E94A40080910A0180958BB910920B0140
S113035010920A011092090110920801089511B82F
S11303609FEF92B98DB180618DB98EB18F7E8EB9B8
S11303709AB91BB80E9485000E9425010E94590168
S11303800E94A001F9CF97FB072E16F4009407D022
S113039077FD09D00E94F60107FC05D03EF4909544
S11303A081959F4F0895709561957F4F0895052E0F
S11303B097FB1EF400940E94EE0157FD07D00E94A3
S11303C00A0207FC03D04EF40C94EE0150954095BC
S11303D0309521953F4F4F4F5F4F089590958095ED
S11303E0709561957F4F8F4F9F4F0895AA1BBB1B3C
S11303F051E107C0AA1FBB1FA617B70710F0A61B21
S1130400B70B881F991F5A95A9F780959095BC0141
S1130410CD010895A1E21A2EAA1BBB1BFD010DC03C
S1130420AA1FBB1FEE1FFF1FA217B307E407F507A0
S113043020F0A21BB30BE40BF50B661F771F881F7C
S1130440991F1A9469F760957095809590959B0112
S1130450AC01BD01CF0108958F929F92AF92BF92DC
S1130460CF92DF92EF92FF92CF93DF93EC016881FA
S113047079818A819B81611571058105910521F43A
S113048064E279ED8BE597E02DE133EF41E050E054
S11304900E94D70149015A019B01AC01A7EAB1E4CA
S11304A00E9488026B017C01ACEEB4EFA5019401BB
S11304B00E949602DC01CB018C0D9D1DAE1DBF1D5B
S11304C0B7FF03C00197A109B04888839983AA8321
S11304D0BB839F77DF91CF91FF90EF90DF90CF9018
S11304E0BF90AF909F908F9008950E942C02089522
S11304F080E091E00E942C020895A0E0B0E0809397
S1130500000190930101A0930201B09303010895A7
S11305100E949B02A59F900DB49F900DA49F800DF7
S1130520911D11240895B7FF0C9488020E9488023B
S1130530821B930B0895A29FB001B39FC001A39F98
S1130540700D811D1124911DB29F700D811D112408
S10B0550911D0895F894FFCFFA
S109055801000000010097
S9030000FC
