:100000000C9466000C9483000C9483000C94830081
:100010000C9483000C9483000C9483000C94830054
:100020000C9483000C9483000C9483000C94830044
:100030000C9483000C9485000C9483000C94830032
:100040000C9483000C9483000C9483000C94830024
:100050000C9483000C9483000C9483000C94830014
:100060000C9483000C9483000C9483000C94830004
:100070000C9483000C9483000C9483000C948300F4
:100080000C9483000C9483000C9483000C948300E4
:100090000C9483000C9483000C9483000C948300D4
:1000A0000C9483000C9483000C9483000C948300C4
:1000B0000C9483000C9483000C9483000C948300B4
:1000C0000C9483000C9483000C94830011241FBEB5
:1000D000CFEFD8E0DEBFCDBF11E0A0E0B1E0E6E5B4
:1000E000F3E002C005900D92AA30B107D9F721E0E4
:1000F000AAE0B1E001C01D92AF30B207E1F70E9463
:100100008D010C94A9010C9400001F920F920FB660
:100110000F9211248F939F93109285001092840068
:1001200080910A01882349F080910D0190910E0180
:10013000019790930E0180930D019F918F910F90E5
:100140000FBE0F901F90189510928000E1E8F0E02C
:10015000808188618083E4E8F0E0808191819183EF
:100160008083EFE6F0E080818260808384E294EF18
:1001700090938900809388000895E1E8F0E0808101
:1001800084608083089582E886BD83E085BD85B361
:100190008823E9F315BC81E085BB0895CF93DF93F5
:1001A000C0E0D0E007C09EB180E189278EB90E94EF
:1001B000C3002196C03981E0D807ACF3DF91CF911D
:1001C000089585E090E090930E0180930D018FEFEC
:1001D0008BB91092000181E080930A0108950F937A
:1001E0001F93CF93DF9380B190E0909306018093AB
:1001F0000501C0E0D0E048C020910701309108011E
:100200000C2E02C0359527950A94E2F780910501DE
:10021000909106010C2E02C0959587950A94E2F7FD
:100220008170992720FD2FC0892B69F1C230D1053B
:1002300011F134F4209759F0C130D10581F023C079
:10024000C330D105D9F0C430D105D9F01CC080919C
:10025000000181110E94E1000E94CE0014C00E94A2
:10026000CE0080910B0190910C01019690930C01AE
:1002700080930B0108C00E94CE0005C00E94CE00F2
:1002800002C00E94CE002196C830D1050CF4B4CF34
:1002900080910501909106019093080180930701D8
:1002A0008CB190E090930201809301019091030141
:1002B00086FB002700F910E096FD04C0012B11F029
:1002C0000E94CE008091010190910201909304015F
:1002D00080930301DF91CF911F910F910895809139
:1002E0000B0180958BB910920C0110920B0181E0EB
:1002F0008093000110920A010E94CE0008950E948E
:10030000EF0008950E94EF0080910D0190910E0181
:10031000892B11F40E946F01089511B89FEF92B9D3
:100320008DB180618DB98EB18F7E8EB99AB91BB8AF
:100330000E94A40078940E94BD0080910001811168
:100340000E947F0180910A018823B9F30E948201F3
:06035000F4CFF894FFCF8A
:0A03560001FF00FF00FF00FF0000A0
:00000001FF
