:100000000C9466000C9483000C9483000C94830081
:100010000C9483000C9483000C9483000C94830054
:100020000C9483000C9483000C9483000C94830044
:100030000C9483000C94FE000C9483000C948300B9
:100040000C9483000C9483000C9483000C94830024
:100050000C9483000C9483000C9483000C94830014
:100060000C9483000C9483000C9483000C94830004
:100070000C9483000C9483000C9483000C948300F4
:100080000C9483000C9483000C9483000C948300E4
:100090000C9483000C9483000C9483000C948300D4
:1000A0000C9483000C9483000C9483000C948300C4
:1000B0000C9483000C9483000C9483000C948300B4
:1000C0000C9483000C9483000C94830011241FBEB5
:1000D000CFEFD8E0DEBFCDBF11E0A0E0B1E0E6E2B7
:1000E000F6E002C005900D92A630B107D9F721E0E5
:1000F000A6E0B1E001C01D92A031B207E1F70E9475
:1001000010020C9411030C94000010928000E1E89E
:10011000F0E0808188618083E4E8F0E08081918173
:1001200091838083EFE6F0E080818260808384E2C7
:1001300094EF90938900809388000895E1E8F0E0BF
:100140008081846080830895E1E8F0E08081887F89
:100150008083089588E386BD82E085BD85B38823CA
:10016000E9F315BC81E085BB0895CF93DF93C0E030
:10017000D0E007C09EB180E189278EB90E94AA0015
:100180002196C83CD105B4F3DF91CF91089582E860
:1001900086BD83E085BD85B38823E9F315BC81E086
:1001A00085BB0895CF93DF93C0E0D0E007C09EB138
:1001B00080E189278EB90E94C7002196C03981E06D
:1001C000D807ACF3DF91CF91089520910A013091C7
:1001D0000B010BC00E94DF0266E070E00E942A0261
:1001E0009C01039714F02E5F3F4F80910A0190917C
:1001F0000B012817390771F3C90108951F920F9257
:100200000FB60F9211242F933F934F935F936F93E9
:100210007F938F939F93AF93BF93EF93FF9310922E
:10022000850010928400809107018823D1F00E94FC
:10023000E50080930A0190930B0121E030E0A901D1
:1002400002C0440F551F8A95E2F7CA0180958BB909
:1002500080910E0190910F01019790930F0180936F
:100260000E01FF91EF91BF91AF919F918F917F917F
:100270006F915F914F913F912F910F900FBE0F9013
:100280001F901895CF92DF92EF92FF92CF93DF935A
:1002900081E080930401C0E0D0E033C0BE016F5F15
:1002A0007F4F072E000C880B990B20EA36E841E0BF
:1002B00050E00E943E026B017C01EB01669904C094
:1002C0008091080180958BB900991BC00E94D200D3
:1002D0000E94B5000E94D200009BFECFC6010E9482
:1002E000E40278940E949E008EE190E090930F01CA
:1002F00080930E018FEF8BB91092040181E08093FF
:100300000701809104018111C9CFDF91CF91FF9046
:10031000EF90DF90CF9008955AC080B190E0809523
:10032000909540910A0150910B01042E02C09595C1
:1003300087950A94E2F780FF23C04F3F8FEF58075D
:10034000F9F080B190E080959095042E02C09595CB
:1003500087950A94E2F780FDF4CF80910C0190918B
:100360000D01019690930D0180930C018FEF9FEF8B
:1003700090930B0180930A018BB90E94D20018C0A0
:1003800080B121E030E002C0220F331F4A95E2F72E
:100390002861A901482BCA018F3F910549F080B11E
:1003A000A901482BCA018F3F9105C9F70E94B500EA
:1003B00080910E0190910F011816190644F01BB898
:1003C0000E94D2001092070181E080930601809183
:1003D00007018111A2CF08950E94A4000E94B500D8
:1003E0000E94D2000E94B50080910C0180958BB9CB
:1003F00080910C0190910D0120910801309109012B
:100400002817390724F4909309018093080110926A
:100410000D0110920C0110920B0110920A01089527
:1004200011B89FEF92B98DB18F7B8DB98EB1806479
:100430008EB98DB180618DB98EB18F7E8EB99AB92A
:100440001BB80E9485000E9442010E948C010E94FC
:10045000EC01F9CF97FB072E16F4009407D077FD37
:1004600009D00E945D0207FC05D03EF4909581956D
:100470009F4F0895709561957F4F0895052E97FBC6
:100480001EF400940E94550257FD07D00E9471028D
:1004900007FC03D04EF40C945502509540953095CE
:1004A00021953F4F4F4F5F4F0895909580957095E0
:1004B00061957F4F8F4F9F4F0895AA1BBB1B51E142
:1004C00007C0AA1FBB1FA617B70710F0A61BB70BC4
:1004D000881F991F5A95A9F780959095BC01CD0169
:1004E0000895A1E21A2EAA1BBB1BFD010DC0AA1F75
:1004F000BB1FEE1FFF1FA217B307E407F50720F08D
:10050000A21BB30BE40BF50B661F771F881F991F07
:100510001A9469F760957095809590959B01AC0150
:10052000BD01CF0108958F929F92AF92BF92CF925B
:10053000DF92EF92FF92CF93DF93EC016881798194
:100540008A819B81611571058105910521F464E221
:1005500079ED8BE597E02DE133EF41E050E00E942B
:100560003E0249015A019B01AC01A7EAB1E40E9495
:10057000EF026B017C01ACEEB4EFA50194010E9487
:10058000FD02DC01CB018C0D9D1DAE1DBF1DB7FF13
:1005900003C00197A109B04888839983AA83BB83CC
:1005A0009F77DF91CF91FF90EF90DF90CF90BF903A
:1005B000AF909F908F9008950E949302089580E0DD
:1005C00091E00E9493020895A0E0B0E080930001C2
:1005D00090930101A0930201B093030108950E943A
:1005E0000203A59F900DB49F900DA49F800D911DB7
:1005F00011240895B7FF0C94EF020E94EF02821BB2
:10060000930B0895A29FB001B39FC001A39F700DEB
:10061000811D1124911DB29F700D811D1124911D0A
:060620000895F894FFCFDD
:06062600010000000100CC
:00000001FF
