S014000050726F6A6563743247616D652E737265638D
S11300000C9466000C9483000C9483000C9483007D
S11300100C9483000C9483000C9483000C94830050
S11300200C9483000C9483000C9483000C94830040
S11300300C9483000C94D3000C9483000C948300E0
S11300400C9483000C9483000C9483000C94830020
S11300500C9483000C9483000C9483000C94830010
S11300600C9483000C9483000C9483000C94830000
S11300700C9483000C9483000C9483000C948300F0
S11300800C9483000C9483000C9483000C948300E0
S11300900C9483000C9483000C9483000C948300D0
S11300A00C9483000C9483000C9483000C948300C0
S11300B00C9483000C9483000C9483000C948300B0
S11300C00C9483000C9483000C94830011241FBEB1
S11300D0CFEFD8E0DEBFCDBF11E0A0E0B1E0ECE9A6
S11300E0F4E002C005900D92A630B107D9F721E0E3
S11300F0A6E0B1E001C01D92AE30B207E1F70E9464
S113010077010C944C020C94000010928000E1E8FA
S1130110F0E0808188618083E4E8F0E0808191816F
S113012091838083EFE6F0E080818260808384E2C3
S113013094EF90938900809388000895E1E8F0E0BB
S11301408081846080830895E1E8F0E08081887F85
S11301508083089582E886BD83E085BD85B38823C6
S1130160E9F315BC81E085BB0895CF93DF93C0E02C
S1130170D0E007C09EB180E189278EB90E94AA0011
S11301802196C03981E0D807ACF3DF91CF9108956F
S11301900E94D90187709078992324F40197886F7D
S11301A09F6F019608951F920F920FB60F9211241C
S11301B02F933F934F935F936F937F938F939F936B
S11301C0AF93BF93EF93FF93109285001092840036
S11301D08FEF8BB9809107018823D9F00E94C80062
S11301E080930801909309015BB121E030E0B901EB
S11301F002C0660F771F8A95E2F7CB0185278BB97A
S113020080910C0190910D01019790930D018093C1
S11302100C01FF91EF91BF91AF919F918F917F91CD
S11302206F915F914F913F912F910F900FBE0F905F
S11302301F90189514C0009912C0009BFECF7894AB
S11302400E949E008EE190E090930D0180930C013A
S11302508FEF8BB91092040181E0809307018091A4
S113026004018111E8CF089535C080B120910801BF
S113027090E080959095022E02C0959587950A94FA
S1130280E2F780FF19C080B190E080959095022E2E
S113029002C0959587950A94E2F780FDF4CF80918A
S11302A00A0190910B01019690930B0180930A012E
S11302B08FEF8BB90E94B50080910C0190910D01D4
S11302C0892B41F41BB80E94B5001092070181E00C
S11302D080930601809107018111C7CF089502C060
S11302E00E94A400809106018111FACF089511B8EB
S11302F09FEF92B98DB180618DB98EB18F7E8EB929
S11303009AB91BB80E9485000E941A010E94340108
S11303100E946F0180E090E008958F929F92AF92C7
S1130320BF92CF92DF92EF92FF92CF93DF93EC01D3
S1130330688179818A819B816115710581059105A7
S113034021F464E279ED8BE597E02DE133EF41E0B0
S113035050E00E94E90149015A019B01AC01A7EA5E
S1130360B1E40E9408026B017C01ACEEB4EFA5017C
S113037094010E941602DC01CB018C0D9D1DAE1D63
S1130380BF1DB7FF03C00197A109B04888839983B3
S1130390AA83BB839F77DF91CF91FF90EF90DF908B
S11303A0CF90BF90AF909F908F9008950E948D0141
S11303B0089580E091E00E948D010895A0E0B0E0EE
S11303C08093000190930101A0930201B093030173
S11303D00895052E97FB1EF400940E94000257FD19
S11303E007D00E941B0207FC03D04EF40C940002B9
S11303F050954095309521953F4F4F4F5F4F08954D
S113040090958095709561957F4F8F4F9F4F08957C
S11304100E943D02A59F900DB49F900DA49F800D56
S1130420911D11240895B7FF0C9408020E9408023C
S1130430821B930B0895A1E21A2EAA1BBB1BFD017C
S11304400DC0AA1FBB1FEE1FFF1FA217B307E407AF
S1130450F50720F0A21BB30BE40BF50B661F771F07
S1130460881F991F1A9469F76095709580959095E7
S11304709B01AC01BD01CF010895A29FB001B39FC0
S1130480C001A39F700D811D1124911DB29F700D99
S10F0490811D1124911D0895F894FFCFE4
S109049C01000000010054
S9030000FC
