:100000000C9466000C947B000C947B000C947B0099
:100010000C947B000C947B000C947B000C947B0074
:100020000C947B000C947B000C947B000C947B0064
:100030000C947B000C947D000C947B000C947B0052
:100040000C947B000C947B000C947B000C947B0044
:100050000C947B000C947B000C947B000C947B0034
:100060000C947B000C947B000C947B000C947B0024
:100070000C947B000C947B000C947B000C947B0014
:100080000C947B000C947B000C947B000C947B0004
:100090000C947B000C947B000C947B000C947B00F4
:1000A0000C947B000C947B000C947B000C947B00E4
:1000B0000C947B000C947B000C947B000C947B00D4
:1000C0000C947B000C947B000C947B0011241FBECD
:1000D000CFEFD8E0DEBFCDBF11E0A0E0B1E0ECE6AD
:1000E000F2E002C005900D92A630B107D9F70E9448
:1000F00019010C9434010C9400001F920F920FB65A
:100100000F9211248F939F93109285001092840078
:1001100080910401909105010197909305018093CE
:1001200004019F918F910F900FBE0F901F90189513
:1001300010928000E1E8F0E0808188618083E4E84B
:10014000F0E08081918191838083EFE6F0E080810F
:100150008260808384E294EF90938900809388008A
:100160000895E1E8F0E0808184608083089582E86A
:1001700086BD83E085BD85B38823E9F315BC81E0A6
:1001800085BB0895CF93DF93C0E0D0E007C09EB158
:1001900080E189278EB90E94B7002196C03981E09D
:1001A000D807ACF3DF91CF910895CF93DF9380B15F
:1001B00090E09093010180930001C0E0D0E02BC05B
:1001C00020910201309103010C2E02C03595279534
:1001D0000A94E2F780910001909101010C2E02C077
:1001E000959587950A94E2F78170992720FD12C0B2
:1001F000892B81F0C130D10541F0C430D10541F0E7
:10020000209741F40E94C20005C00E94C20002C0B3
:100210000E94C2002196C830D10594F2809100015D
:10022000909101019093030180930201DF91CF919E
:10023000089511B89FEF92B98DB180618DB98EB1DB
:100240008F7E8EB99AB91BB80E94980078940E944C
:10025000B1008091040190910501892B11F48FEF79
:0C0260008BB90E94D500F5CFF894FFCFB9
:06026C00FF00FF00050089
:00000001FF
