:020000020000FC
:1000000008E00EBF0FEF0DBF00E010E011B91FEFC9
:1000100012B96C9A74981FEF1AB90BB92FEF3FEF12
:1000200093E8222C90E0392E492E422F30B1532FE5
:100030004695C0F0569510F40E9490014695A0F0A8
:10004000569510F40E94F401469580F0569518F4E8
:10005000309430FC25D730FC23D6232F00950BB9E4
:100060000095E3CF5695EACF5695EECF5695F3CF50
:0803200003950E9400060895F8
:0803E8000A950E940006089529
:100C0000FAE0EFEFDFEF00000000DA95E1F7EA9598
:080C1000C9F7FA95B1F7089548
:080CA00095B390FD22D00895E8
:0E0CEA004A9419F4ADD017DB089585D0089513
:0E0E000090E091E095BB26BC95E095BD08956D
:0C0E4A0092E3492E9FEF392ED6DF089569
:060EA0003FDAD3DF0895E4
:00000001FF
