:020000020000FC
:1000000008E00EBF0FEF0DBF10E011B91FEF12B9DE
:100010006C9A74981FEF1AB90BB92FEF3FEF00E0FD
:1000200093E8222C90E0392E492E422F30B1532FE5
:100030004695E0F0569510F40E9490014695C0F068
:10004000569510F40E94A9014695A0F0569518F413
:10005000309430FCC3D2469578F0569500F430FCCD
:1000600059D2232F00950BB90095DFCF5695E6CFD7
:0C0070005695EACF5695EFCF5695F1CF8C
:10032000039590E205FD47D005FD00E00E94F40131
:0203300008952E
:100352000A9507FD2FD005FD0EE10E94F4010895D4
:0E038400D1E4E8E2EA95F1F7DA95D9F70895A9
:1003B60098EC749AE4DF7498E2DF9A95D1F7089581
:1003E800FAE0EFEFDFEF00000000DA95E1F7EA95B9
:0803F800C9F7FA95B1F7089569
:0805140095B390FD16D0089587
:0E0546004A9419F42FD0E9DE089513D00895D9
:0E05780090E091E095BB26BC95E095BD0895FE
:0C05AA0092E3492E9FEF392EE2DF089506
:0605DC00A1DEE5DF089539
:00000001FF
