:020000020000FC
:1000000008E00EBF0FEF0DBF10E011B91FEF12B9DE
:100010006C9A74981FEF1AB90BB92FEF3FEF00E0FD
:1000200094E6292E90E0392E492E422F30B1532FDD
:10003000469558F1569510F40E949001469538F176
:10004000569510F40E94A901469518F1569518F49A
:10005000309430FCC3D24695F0F0569508F4D7D2D0
:100060004695D8F0569508F4EBD24695C0F05695D3
:1000700008F4FFD24695A8F0569500F430FC4AD219
:10008000232F00950BB90095D0CF5695D7CF569515
:10009000DBCF5695E0CF5695E3CF5695E6CF5695F4
:0600A000E9CF5695EBCFFD
:0A02BC0007FD7BD007FD0EE1089559
:1002EE00902FD0EE9D23903021F4902F9F5109F046
:0802FE0008955AD00F51F4CF0E
:080320000395E5DF61D00895AB
:080352000A95B3DF48D00895BD
:0E038400D1E4E8E2EA95F1F7DA95D9F70895A9
:1003B60098EC749AE4DF7498E2DF9A95D1F7089581
:1003E800FAE0EFEFDFEF00000000DA95E1F7EA95B9
:0803F800C9F7FA95B1F7089569
:0805140095B390FD16D0089587
:100546004A9421F42FD00395CFDE089512D0089552
:0E05780090E091E095BB26BC95E095BD0895FE
:0C05AA0094E6492E9FEF392EE2DF089501
:0605DC00A1DEE5DF089539
:0A060E00000F6EDE0E94F401089553
:060640000695D2DE0895CC
:060672000730B9F0089505
:1006A400AFEF80E0ABB99EDE8BB99CDEABB99ADECE
:0C06B4008BB998DE00950BB900950895F5
:00000001FF
