:020000020000FC
:1000000000E010E011B91FEF12B96C9A74981FEF5D
:100010001AB90BB92FEF3FEF422F30B1532F46954E
:1000200078F0569510F40E949001469558F0569538
:1000300010F40E94F401232F00950BB90095ECCF2A
:080040005695F3CF5695F7CF5A
:100320000395FFEFFA95EFEFEA95DFEFDA95CFEF60
:10033000CA9500000000000000000000C9F7B1F7F6
:0603400099F781F7089512
:0403E8000A950895D5
:100C00007AEF87E000007A95E9F700008A95C9F746
:020C1000089545
:00000001FF
